:020000040800F2
:1000000068040020C10100082F0E0008E50D00085B
:100010002D0E0008CD020008DD0E000800000000D3
:10002000000000000000000000000000330E000887
:10003000CF02000800000000310E0008350E000855
:10004000DB010008DB010008DB010008DB01000820
:10005000DB010008DB010008DB010008DB01000810
:10006000DB010008DB010008DB010008DB01000800
:10007000DB010008DB010008DB010008DB010008F0
:10008000DB010008DB010008DB010008DB010008E0
:10009000DB010008DB010008DB010008DB010008D0
:1000A000DB010008DB010008DB010008DB010008C0
:1000B000DB010008DB010008DB010008DB010008B0
:1000C000DB010008DB010008DB010008DB010008A0
:1000D000DB010008DB010008DB010008DB01000890
:1000E000DB010008DB010008DB010008DB01000880
:1000F000DB010008DB010008DB010008DB01000870
:10010000DB010008DB010008DB010008DB0100085F
:10011000DB010008DB010008DB010008DB0100084F
:10012000DB010008DB010008DB010008DB0100083F
:10013000DB010008DB010008DB010008DB0100082F
:10014000DB010008DB010008DB010008DB0100081F
:10015000DB010008DB010008DB010008DB0100080F
:10016000DB010008DB010008DB010008DB010008FF
:10017000DB010008DB010008DB01000800000000D3
:10018000DB010008DB010008DB010008DB010008DF
:10019000DB010008DB010008DB010008DB010008CF
:1001A000DB010008DB010008DB010008DFF80CD0F0
:1001B00000F07AF8004800471D0F0008680400208E
:1001C0000648804706480047FEE7FEE7FEE7FEE7F1
:1001D000FEE7FEE7FEE7FEE7FEE7FEE7C10E0008EA
:1001E000AD0100082DE9F05F0546002092469B46D0
:1001F00088460646814640241BE02846414647463D
:10020000224600F041F853465A46C01A914110D395
:1002100011461846224600F028F82D1A67EB01080F
:100220004F4622460120002100F01FF817EB00097D
:100230004E41201EA4F10104DFDC484631462A4627
:100240004346BDE8F09FD2B201E000F8012B491E01
:10025000FBD270470022F6E710B513460A46044663
:100260001946FFF7F0FF204610BD202A04DB203A94
:1002700000FA02F1002070479140C2F1200320FAF9
:1002800003F3194390407047202A04DB203A21FAF7
:1002900002F00021704721FA02F3D040C2F120029F
:1002A0009140084319467047064C074D06E0E06848
:1002B00040F0010394E8070098471034AC42F6D3AD
:1002C000FFF778FF7C0F00089C0F0008FEE77047DF
:1002D0002DE9F84F00224FF0010803254FF00F0ED3
:1002E0000B6808FA02F42340A3426ED14E68012E37
:1002F00005D0022E03D0112E01D0122E12D1866805
:100300004FEA420C05FA0CF7BE43CF6807FA0CF728
:10031000374387604668A6430C79C4F300149440C1
:1003200034434460C668570005FA07FC8C6826EA27
:100330000C06BC403443C4604C68022C01D0122C23
:1003400013D1D40800EB8404A346D4F820905407BA
:100350004FEAD46A0EFA0AF629EA06090E6906FA85
:100360000AF646EA0906CBF8206004680E7924EA0A
:100370000C0406F00306BE40264306604C68E40009
:100380006FD53B4C266846F480462660246822F0F0
:10039000030604F480440094364C3444A446D4F854
:1003A00008489607360F0EFA06F7BC43324FB8429C
:1003B00001D100272EE0314FB84201D1012729E0B9
:1003C0002F4FB84202D1022724E04AE02D4FB84215
:1003D00001D103271EE02C4FB84201D1042719E0B8
:1003E0002A4FB84201D1052714E0294FB84201D164
:1003F00006270FE0274FB84201D107270AE0264F12
:10040000B84201D1082705E0244FB84201D109279D
:1004100000E00A27B7402743CCF80878204E34681C
:100420004F689C43FF0300D51C4334601C4E361DAF
:1004300034684F689C43BF0300D51C433460184E9A
:10044000083634684F689C43FF0200D51C43346073
:10045000134E0C3634684F689C43BF0200D51C43D2
:100460003460521C102AFFF43BAFBDE8F88F000047
:1004700044380240003001400000024000040240C5
:1004800000080240000C024000100240001402402C
:1004900000180240001C02400020024000240240DC
:1004A000003C0140014880687047000000000020C7
:1004B00090F83D20202A01D002207047242280F8A5
:1004C0003D200268136823F0010313600268536A39
:1004D00023F0100353620268536A0B4353620168AE
:1004E0000A6842F001020A60202180F83D100020D5
:1004F000704790F83D20202A01D002207047242226
:1005000080F83D200268136823F00103136003683C
:100510005A6A22F00F020A4391B2596201680A68CE
:1005200042F001020A60202180F83D10002070474F
:1005300070B5040025D094F83D00002520B984F85A
:100540003C50204600F0B8F8242084F83D00206894
:10055000016821F0010101602068016841F4004157
:1005600001602068016821F40041016000F036FA62
:100570004D4A6168914201D84C4900E04C4988429B
:1005800001D2012070BD4B492368B0FBF1F15E68D8
:1005900026F03F060E435E606368934206D94FF42F
:1005A000967359434FF47A73B1FBF3F12368491CF6
:1005B0001E6A26F03F06314319626168914210D8E5
:1005C0004900401EB0FBF1F2521CC2F30B02042A98
:1005D00001D2042022E0B0FBF1F0401CC0F30B007C
:1005E0001CE0A268F2B301EBC10303EB0116431E4A
:1005F000B3FBF6F35B1C43F480431B0549D092B375
:1006000001EBC10202EB0111401EB0FBF1F0401CF6
:10061000C0F30B0040F4804040F400402168CA69F8
:100620004CF6FF739A431043C861D4E907100143A5
:100630002068026822F0C00211430160D4E903017E
:1006400001432068826848F2FF339A431143816076
:10065000D4E9050108432168CA6822F0FF0210436B
:10066000C86001E00EE016E02068016841F0010179
:1006700001602564202084F83D00256384F83E5005
:10068000002070BD01EB4106431EB3FBF6F35B1C7B
:10069000B3E70120C2E701EB4101401EB0FBF1F0DE
:1006A000401CC0F30B00B7E7A086010080841E0049
:1006B00000093D0040420F0010B586B004461421E9
:1006C0006846FFF7C7FD13492068884220D11248C9
:1006D000016841F0020101600068694600F0020013
:1006E0000590C0200090122001900120029003206C
:1006F0000390042004900948FFF7EAFD06481030F3
:10070000016841F400110160006800F400100590D8
:1007100006B010BD005400403038024000040240D2
:10072000024881680278114481607047000000200F
:100730000B4810B5016841F400710160016841F493
:1007400080610160016841F480710160032000F064
:1007500061F8002000F006F800F024F8002010BD39
:10076000003C024070B50D4D04464FF47A71287874
:10077000B1FBF0F00A490968B1FBF0F000F01EFB94
:1007800048B9102C07D200222146501E00F022F852
:1007900000206C6070BD012070BD000000000020D2
:1007A0000C0000200A4808B5016841F4804101604E
:1007B000006800F4804000900548001F016841F087
:1007C00080510160006800F08050009008BD00007A
:1007D00044380240F0B40E4B1B680C46C3F30223AE
:1007E000C3F10705042D00D90425191D072901D2DD
:1007F000002300E0DB1E012606FA05F1491E214018
:1008000099409E40761E16403143F0BC00F067BB15
:100810000CED00E0064900F0070208684FF6FF0300
:10082000184040EA0220034A104308607047000065
:100830000CED00E00000FA052DE9F84317480168C7
:1008400041F0805101600068154F00F08050012692
:1008500000903E64FFF726FE05464FF47A78114C6F
:1008600005E000BFFFF71EFE401B40450DD8606845
:10087000C003F7D57E64FFF715FE0546464607E040
:10088000FFF710FE401BB04202D90320BDE8F883F9
:1008900060688003F4D50020F8E70000403802408B
:1008A00000000E42007000402DE9F0470E460500A2
:1008B00065D0DFF81481D8F80000F7B200F00F001F
:1008C000B04207D288F80070D8F8000000F00F009E
:1008D000B04254D128683D4C810712D5400703D55A
:1008E000206840F4E05020602878000703D5206895
:1008F00040F4604020602068A96820F0F0000843C0
:1009000020602878C0072DD0304968680839012850
:1009100012D0022813D0032811D0096889070029B2
:100920002DDA216821F0030101432160FFF7BAFDB0
:10093000814641F2883A0EE009688903EFE70968C9
:100940008901ECE7FFF7AEFDA0EB0901514502D9A3
:100950000320BDE8F0872068696800F00C00B0EB68
:10096000810FEFD1D8F80010404601F00F01B142DD
:1009700007D90770006800F00F00B04201D00120D5
:10098000E7E72878400705D52068E96820F4E050BB
:10099000084320602878000706D52068296920F4DC
:1009A000604040EAC100206000F028F82168084A51
:1009B000C1F30311515CC84006490860064800684D
:1009C000FFF7D0FE0020C4E7003C02400838024098
:1009D000640F00080C0000200400002004480549B2
:1009E00000680968044AC1F38221515CC84070471D
:1009F0000C00002008380240740F0008154810B59C
:100A0000006810F00C02144813D01449042A0FD0C7
:100A1000082A0ED10F4C241F2268236802F03F02DF
:100A20005B0207D52068C0F38810A0FB010106E037
:100A3000084610BD2168C1F38811A1FB0001002305
:100A4000FFF7D0FB2168C1F30141491C4900B0FB0D
:100A5000F1F010BD083802400024F40040787D0118
:100A60002DE9F84F04006ED02078DFF83C93C007E2
:100A7000A9F104054AD009F104000168C1F381011C
:100A8000012908D00068C0F3810002280AD1D9F8F2
:100A90000000400206D52868800337D5606800282A
:100AA000E1D033E06068B0F5803F10D0B0F5A02F02
:100AB000286810D020F480302860286820F4802036
:100AC00028606068A8B1FFF7EDFC06460DE02868D5
:100AD00040F48030F4E740F480202860F7E700BF5E
:100AE000FFF7E0FC801B642873D828688003F7D5E3
:100AF0000CE0FFF7D7FC064605E000BFFFF7D2FC8D
:100B0000801B6428F0D828688003F7D42078DFF8A9
:100B10009C8280074FF0000A3ED5A348001D016863
:100B200011F00C0F08D00068C0F3810002280BD12F
:100B3000D9F80000400207D42868800716D5E0687D
:100B4000012800D112E02BE1E068B8B10120C8F81B
:100B50000000FFF7A7FC064605E000BFFFF7A2FC78
:100B6000801B0228C0D828688007F7D5286821692B
:100B700020F0F80040EAC10028600DE0C8F800A0AD
:100B8000FFF790FC064604E0FFF78CFC801B022870
:100B90001FD828688007F7D42078000722D5824E16
:100BA00083486169703671B101210160FFF77AFCF9
:100BB000074604E0FFF776FCC01B022809D830681E
:100BC0008007F7D50EE0C0F800A0FFF76BFC0746E2
:100BD00005E082E0FFF766FCC01B02287DD8306884
:100BE0008007F7D42078400768D5DFF8BCB100272C
:100BF0000BF13C0BDBF80000C0000BD4DBF800105D
:100C000041F08051CBF80010DBF80000012700F024
:100C100080500090674E3068C00510D4306840F4B2
:100C200080703060FFF73EFC009005E0FFF73AFC73
:100C30000099401A022850D83068C005F6D55A4E9F
:100C4000A0686C3601280FD00528306810D020F03D
:100C500001003060306820F004003060A068B8B156
:100C6000FFF720FC00900FE0306840F00100F4E74F
:100C700040F004003060F7E7FFF714FC0099411AD8
:100C800041F28830814266D830688007F4D50EE0A2
:100C9000FFF708FC009007E0FFF704FC0099411AF9
:100CA00041F28830814256D830688007F4D42FB1A1
:100CB000DBF8001021F08051CBF80010A069C8B318
:100CC0003949091D0968C1F3810102294AD0022866
:100CD000504607D0C8F8600000E03CE0FFF7E2FBB8
:100CE00004463BE04746C8F86000FFF7DBFB0646DA
:100CF00005E000BFFFF7D6FB801B02282BD8286831
:100D00008001F7D4D4E907010843A16A2A4A4908B7
:100D100002EB0141626A41EA8211084394F82C1007
:100D200040EA0161C9F8001001203866FFF7BAFBFC
:100D3000044606E036E000BFFFF7B4FB001B0228C4
:100D400009D828688001F7D52CE000BFFFF7AAFB7F
:100D5000001B022802D90320BDE8F88F2868800113
:100D6000F4D41FE00128F7D0D9F80000E26900F4BC
:100D70008001914214D1226A00F03F0191420FD1CB
:100D800047F6C071626A0140914209D1A26A00F43B
:100D90004031914204D1E16A00F07060884201D094
:100DA0000120D9E70020D7E704380240000047427D
:100DB000800E4742007000400000FFFF10B5401E4B
:100DC000B0F1807F01D3012010BD4FF0E0246061BD
:100DD0000F21601700F083F80020A0610720206138
:100DE000002010BDFEE700000E4810B50C49016060
:100DF0000D49416000214FF480428160C0E9031237
:100E000041618161C1610162FFF792FB00210548E8
:100E1000FFF74EFBBDE8104000210248FFF769BB19
:100E20000054004010000020A0860100FEE770473B
:100E300070477047FFF774BC30B593B030216846F7
:100E4000FFF708FA14210CA8FFF704FA1A48002546
:100E5000016841F080510160006800F080501190FD
:100E60001648016841F4404101600068022400F422
:100E700040401190012003901020049000940694AB
:100E80000820CDE90750B420CDE9090404200B90D7
:100E90006846FFF7E5FDFFF7CFFC0CA90F2081E8BE
:100EA00031004FF4A0500F90E002109005210CA8E3
:100EB000FFF7FAFC13B030BD40380240007000402C
:100EC0000548016841F47001016003494FF000607A
:100ED000803908607047000088ED00E0FEE70907F0
:100EE000090E002804DB00F1E02080F800147047B0
:100EF00000F00F0000F1E02080F8141D704702E0C0
:100F000008C8121F08C1002AFAD170477047002094
:100F100001E001C1121F002AFBD1704708B5FFF79D
:100F200007FCFFF789FF0E48016841F0800101606E
:100F3000016801F080010091016841F00101016048
:100F4000016801F001010091016841F002010160B6
:100F5000006800F002000090FFF746FFFEE7000087
:100F600030380240000000000000000001020304CD
:100F70000607080900000000010203049C0F000896
:100F80000000002010000000FE0E0008AC0F00085A
:100F900010000020580400000E0F0008010000009F
:0C0FA00010000000000000000024F4001D
:04000005080001AD41
:00000001FF
