:020000040800F2
:1000000070040020C1010008B31600089D1200080A
:10001000B1160008CD0200086117000800000000BA
:10002000000000000000000000000000B7160008FB
:10003000CF02000800000000B5160008B91600083D
:10004000DB010008DB010008DB010008DB01000820
:10005000DB010008DB010008DB010008DB01000810
:10006000DB010008DB010008DB010008DB01000800
:10007000DB010008DB010008DB010008DB010008F0
:10008000DB010008DB010008DB010008DB010008E0
:10009000DB010008DB010008DB010008DB010008D0
:1000A000DB010008DB010008DB010008DB010008C0
:1000B000DB010008DB010008DB010008DB010008B0
:1000C000DB010008DB010008DB010008DB010008A0
:1000D000DB010008DB010008DB010008DB01000890
:1000E000DB010008DB010008DB010008DB01000880
:1000F000DB010008DB010008DB010008DB01000870
:10010000DB010008DB010008DB010008DB0100085F
:10011000DB010008DB010008DB010008DB0100084F
:10012000DB010008DB010008DB010008DB0100083F
:10013000DB010008DB010008DB010008DB0100082F
:10014000DB010008DB010008DB010008DB0100081F
:10015000DB010008DB010008DB010008DB0100080F
:10016000DB010008DB010008DB010008DB010008FF
:10017000DB010008DB010008DB01000800000000D3
:10018000DB010008DB010008DB010008DB010008DF
:10019000DB010008DB010008DB010008DB010008CF
:1001A000DB010008DB010008DB010008DFF80CD0F0
:1001B00000F07AF800480047751800087004002025
:1001C0000648804706480047FEE7FEE7FEE7FEE7F1
:1001D000FEE7FEE7FEE7FEE7FEE7FEE7451700085D
:1001E000AD0100082DE9F05F0546002092469B46D0
:1001F00088460646814640241BE02846414647463D
:10020000224600F041F853465A46C01A914110D395
:1002100011461846224600F028F82D1A67EB01080F
:100220004F4622460120002100F01FF817EB00097D
:100230004E41201EA4F10104DFDC484631462A4627
:100240004346BDE8F09FD2B201E000F8012B491E01
:10025000FBD270470022F6E710B513460A46044663
:100260001946FFF7F0FF204610BD202A04DB203A94
:1002700000FA02F1002070479140C2F1200320FAF9
:1002800003F3194390407047202A04DB203A21FAF7
:1002900002F00021704721FA02F3D040C2F120029F
:1002A0009140084319467047064C074D06E0E06848
:1002B00040F0010394E8070098471034AC42F6D3AD
:1002C000FFF778FF2419000844190008FEE770477B
:1002D00070B5044600F0F8F80546601C02D00448EA
:1002E0000078044400F0F0F8401BA042FAD370BD3F
:1002F0000C0000202DE9F84F00224FF001080325E3
:100300004FF00F0E0B6808FA02F42340A3426ED19F
:100310004E68012E05D0022E03D0112E01D0122ED0
:1003200012D186684FEA420C05FA0CF7BE43CF683B
:1003300007FA0CF7374387604668A6430C79C4F385
:100340000014944034434460C668570005FA07FC23
:100350008C6826EA0C06BC403443C4604C68022C0E
:1003600001D0122C13D1D40800EB8404A346D4F896
:10037000209054074FEAD46A0EFA0AF629EA0609D1
:100380000E6906FA0AF646EA0906CBF82060046808
:100390000E7924EA0C0406F00306BE4026430660EC
:1003A0004C68E4006FD53B4C266846F480462660D6
:1003B000246822F0030604F480440094364C34444C
:1003C000A446D4F808489607360F0EFA06F7BC4341
:1003D000324FB84201D100272EE0314FB84201D14F
:1003E000012729E02F4FB84202D1022724E04AE03A
:1003F0002D4FB84201D103271EE02C4FB84201D146
:10040000042719E02A4FB84201D1052714E0294FEB
:10041000B84201D106270FE0274FB84201D1072784
:100420000AE0264FB84201D1082705E0244FB84220
:1004300001D1092700E00A27B7402743CCF8087804
:10044000204E34684F689C43FF0300D51C43346042
:100450001C4E361D34684F689C43BF0300D51C43B7
:100460003460184E083634684F689C43FF0200D54C
:100470001C433460134E0C3634684F689C43BF02F3
:1004800000D51C433460521C102AFFF43BAFBDE87A
:10049000F88F000044380240003001400000024064
:1004A0000004024000080240000C0240001002401C
:1004B0000014024000180240001C024000200240CC
:1004C00000240240003C0140014880687047000061
:1004D0000C00002090F83D20202A01D00220704717
:1004E000242280F83D200268136823F00103136082
:1004F0000268536A23F0100353620268536A0B4385
:10050000536201680A6842F001020A60202180F803
:100510003D100020704790F83D20202A01D0022095
:100520007047242280F83D200268136823F00103FD
:10053000136003685A6A22F00F020A4391B25962AB
:1005400001680A6842F001020A60202180F83D102B
:100550000020704770B5040025D094F83D000025B8
:1005600020B984F83C50204600F002FB242084F897
:100570003D002068016821F00101016020680168E8
:1005800041F4004101602068016821F400410160EC
:1005900000F080FC4D4A6168914201D84C4900E06E
:1005A0004C49884201D2012070BD4B492368B0FB01
:1005B000F1F15E6826F03F060E435E606368934289
:1005C00006D94FF4967359434FF47A73B1FBF3F1A4
:1005D0002368491C1E6A26F03F0631431962616890
:1005E000914210D84900401EB0FBF1F2521CC2F3F8
:1005F0000B02042A01D2042022E0B0FBF1F0401CDF
:10060000C0F30B001CE0A268F2B301EBC10303EBE3
:100610000116431EB3FBF6F35B1C43F480431B053A
:1006200049D092B301EBC10202EB0111401EB0FBB5
:10063000F1F0401CC0F30B0040F4804040F4004057
:100640002168CA694CF6FF739A431043C861D4E924
:10065000071001432068026822F0C00211430160C4
:10066000D4E9030101432068826848F2FF339A43CA
:1006700011438160D4E9050108432168CA6822F06A
:10068000FF021043C86001E00EE016E02068016838
:1006900041F0010101602564202084F83D002563BC
:1006A00084F83E50002070BD01EB4106431EB3FBB1
:1006B000F6F35B1CB3E70120C2E701EB4101401EEA
:1006C000B0FBF1F0401CC0F30B00B7E7A0860100BF
:1006D00080841E0000093D0040420F002DE9FF4FBD
:1006E00081B089460446FFF7EFFE054694F83D00C9
:1006F0004FF0010820287DD11923012250492046BE
:10070000009500F0DBFE002874D194F83C0001282D
:1007100070D0012084F83C0020680168C90703D12B
:10072000016841F0010101602068016821F4006165
:100730000160242084F83D00002626644148E062E0
:100740004FF0011B20272068016841F4807101608F
:100750000095002259462046049B00F0AFFE50B1A0
:1007600020680068C00502D54FF4007020640320A3
:1007700005B0BDE8F08F216809F0FE000861FFF7C1
:10078000A3FE2168054648694969C0F34000C1F3EA
:1007900080214FF0A00A0FE0FFF796FE411B04985E
:1007A000814200D808B984F83DA0216848694969A8
:1007B000C0F34000C1F3802194F83D20A02A02D06C
:1007C00008B90029E8D084F83D7020684169C94320
:1007D000890716D4016841F40071016020684169FD
:1007E00080691923012216492046009500F066FE13
:1007F000B8B900E021E084F83D7084F83C60002046
:10080000B6E7016841F40071016021686FF480600F
:100810004861192301220A492046009500F04EFE46
:1008200008B10120A4E7039808F1010880458AD3A4
:1008300084F83D7084F83C60F3E7022098E70000FC
:10084000020010000000FFFF2DE9FF4F83B09A4621
:10085000DDE9119793460446DDF84080FFF734FE4A
:10086000054694F83D00202870D1192301227149D2
:100870002046009500F022FE0028F5D194F83C00B7
:10088000012863D0012084F83C0020680168C90772
:1008900003D1016841F0010101602068016821F481
:1008A00000610160222084F83D00402084F83E0071
:1008B00000262664C4F82480A4F82A90608D208540
:1008C0005D48E062CDE9007553465A4620460499DA
:1008D00000F0FCFC00287CD1208DD0B1012821D073
:1008E0000228206824D0416980690090208D032867
:1008F00069D801282BD0514902283B464FF000020D
:10090000009559D08846204600F0D8FD002860D1D7
:100910003CE02068416981690091016841F40071FF
:10092000016077E02068016821F480610160F0E7F0
:10093000016821F4806101602068016841F4006170
:100940000160206841698069009063E06FE02A4699
:100950003946204600F031FE98BB20680069616A84
:1009600008704EE02068016841F400710160206861
:100970000069616A0870606A401C6062218D491ECE
:100980002185618D491E6185216838E020680168F4
:1009900021F48061016020680069616A0870606A02
:1009A000401C6062208D401E2085608D401E608549
:1009B0003B46002241460095204600F07FFD00B9ED
:1009C000D0E706E0FFE72A463946204600F0F5FD6D
:1009D00018B1012007B0BDE8F08F20680069616A96
:1009E0000870606A401C6062218D491E2185618DFE
:1009F000491E618521684A69D24352070AD40969B0
:100A00000170606A401C6062208D401E2085608DF0
:100A1000401E6085208D00287FF468AF202084F878
:100A20003D0084F83E6084F83C600020D2E702205C
:100A3000D0E70000020010000000FFFF04000100EA
:100A40002DE9FF4F83B09A46DDE91197934604469E
:100A5000DDF84080FFF738FD054694F83D0020287A
:100A60007FD11923012240492046009500F026FD40
:100A7000002876D194F83C00012872D0012084F837
:100A80003C0020680168C90703D1016841F00101F9
:100A900001602068016821F400610160212084F870
:100AA0003D00402084F83E0000262664C4F82480DF
:100AB000A4F82A90608D20852C48E062CDE900756D
:100AC00053465A462046049900F07EFC70B930E047
:100AD0002A463946204600F0A3FD58B1206C042870
:100AE00004D12068016841F400710160012007B061
:100AF000BDE8F08F606A216800780861606A401C78
:100B00006062218D491E89B22185628D521E6285E7
:100B100022685369DB435B070BD469B1007810612D
:100B2000606A401C6062208D401E2085608D401EE2
:100B30006085208D0028CBD12A463946204600F01A
:100B400097FC0028CAD154F83D0B016841F40071AC
:100B50000160202004F81E09E67766770020C6E7CA
:100B6000FFE70220C3E70000020010000000FFFFC3
:100B700010B586B0044614216846FFF76BFB134995
:100B80002068884220D11248016841F002010160CA
:100B90000068694600F002000590C0200090122015
:100BA0000190012002900320039004200490094842
:100BB000FFF7A0FB06481030016841F40011016006
:100BC000006800F40010059006B010BD005400400D
:100BD0003038024000040240024881680278114423
:100BE000816070470C0000200B4810B5016841F48B
:100BF00000710160016841F480610160016841F4A5
:100C000080710160032000F061F8002000F006F818
:100C100000F024F8002010BD003C024070B50D4DDE
:100C200004464FF47A712878B1FBF0F00A4909685C
:100C3000B1FBF0F000F01EFB48B9102C07D20022E7
:100C40002146501E00F022F800206C6070BD01208B
:100C500070BD00000C000020180000200A4808B5F4
:100C6000016841F480410160006800F48040009018
:100C70000548001F016841F080510160006800F0E4
:100C80008050009008BD000044380240F0B40E4B84
:100C90001B680C46C3F30223C3F10705042D00D9DA
:100CA0000425191D072901D2002300E0DB1E0126BF
:100CB00006FA05F1491E214099409E40761E1640D5
:100CC0003143F0BC00F04DBD0CED00E0064900F0F2
:100CD000070208684FF6FF03184040EA0220034A63
:100CE00010430860704700000CED00E00000FA05BA
:100CF0002DE9F8431748016841F080510160006810
:100D0000154F00F08050012600903E64FFF7DCFB99
:100D100005464FF47A78114C05E000BFFFF7D4FB8D
:100D2000401B40450DD86068C003F7D57E64FFF7CF
:100D3000CBFB0546464607E0FFF7C6FB401BB0422B
:100D400002D90320BDE8F88360688003F4D5002051
:100D5000F8E700004038024000000E4200700040FA
:100D60002DE9F0470E46050065D0DFF81481D8F86C
:100D70000000F7B200F00F00B04207D288F8007010
:100D8000D8F8000000F00F00B04254D128683D4C64
:100D9000810712D5400703D5206840F4E050206059
:100DA0002878000703D5206840F460402060206860
:100DB000A96820F0F000084320602878C0072DD0F3
:100DC000304968680839012812D0022813D0032856
:100DD00011D00968890700292DDA216821F0030163
:100DE00001432160FFF770FB814641F2883A0EE033
:100DF00009688903EFE709688901ECE7FFF764FBFD
:100E0000A0EB0901514502D90320BDE8F087206815
:100E1000696800F00C00B0EB810FEFD1D8F800103A
:100E2000404601F00F01B14207D90770006800F099
:100E30000F00B04201D00120E7E72878400705D530
:100E40002068E96820F4E050084320602878000713
:100E500006D52068296920F4604040EAC10020607E
:100E600000F028F82168084AC1F30311515CC8401A
:100E70000649086006480068FFF7D0FE0020C4E776
:100E8000003C0240083802400C19000818000020FD
:100E9000100000200448054900680968044AC1F3AD
:100EA0008221515CC8407047180000200838024079
:100EB0001C190008154810B5006810F00C02144801
:100EC00013D01449042A0FD0082A0ED10F4C241F26
:100ED0002268236802F03F025B0207D52068C0F356
:100EE0008810A0FB010106E0084610BD2168C1F38F
:100EF0008811A1FB00010023FFF774F92168C1F3F9
:100F00000141491C4900B0FBF1F010BD0838024016
:100F10000024F40040787D012DE9F84F04006ED0E4
:100F20002078DFF83C93C007A9F104054AD009F105
:100F300004000168C1F38101012908D00068C0F3F1
:100F4000810002280AD1D9F80000400206D528689D
:100F5000800337D560680028E1D033E06068B0F5E1
:100F6000803F10D0B0F5A02F286810D020F480303A
:100F70002860286820F4802028606068A8B1FFF706
:100F8000A3FA06460DE0286840F48030F4E740F408
:100F900080202860F7E700BFFFF796FA801B6428DF
:100FA00073D828688003F7D50CE0FFF78DFA064662
:100FB00005E000BFFFF788FA801B6428F0D8286896
:100FC0008003F7D42078DFF89C8280074FF0000A76
:100FD0003ED5A348001D016811F00C0F08D0006831
:100FE000C0F3810002280BD1D9F80000400207D4D9
:100FF0002868800716D5E068012800D112E02BE1AF
:10100000E068B8B10120C8F80000FFF75DFA0646B5
:1010100005E000BFFFF758FA801B0228C0D82868F7
:101020008007F7D52868216920F0F80040EAC10060
:1010300028600DE0C8F800A0FFF746FA064604E075
:10104000FFF742FA801B02281FD828688007F7D4D0
:101050002078000722D5824E83486169703671B1CD
:1010600001210160FFF730FA074604E0FFF72CFA90
:10107000C01B022809D830688007F7D50EE0C0F8F9
:1010800000A0FFF721FA074605E082E0FFF71CFA0F
:10109000C01B02287DD830688007F7D4207840072D
:1010A00068D5DFF8BCB100270BF13C0BDBF8000082
:1010B000C0000BD4DBF8001041F08051CBF80010D9
:1010C000DBF80000012700F080500090674E306888
:1010D000C00510D4306840F480703060FFF7F4F938
:1010E000009005E0FFF7F0F90099401A022850D867
:1010F0003068C005F6D55A4EA0686C3601280FD06E
:101100000528306810D020F001003060306820F0F1
:1011100004003060A068B8B1FFF7D6F900900FE086
:10112000306840F00100F4E740F004003060F7E779
:10113000FFF7CAF90099411A41F28830814266D816
:1011400030688007F4D50EE0FFF7BEF9009007E0A5
:10115000FFF7BAF90099411A41F28830814256D816
:1011600030688007F4D42FB1DBF8001021F08051F3
:10117000CBF80010A069C8B33949091D0968C1F34B
:10118000810102294AD00228504607D0C8F86000E1
:1011900000E03CE0FFF798F904463BE04746C8F81A
:1011A0006000FFF791F9064605E000BFFFF78CF9F4
:1011B000801B02282BD828688001F7D4D4E90701C6
:1011C0000843A16A2A4A490802EB0141626A41EADE
:1011D0008211084394F82C1040EA0161C9F800100C
:1011E00001203866FFF770F9044606E036E000BFDC
:1011F000FFF76AF9001B022809D828688001F7D593
:101200002CE000BFFFF760F9001B022802D9032081
:10121000BDE8F88F28688001F4D41FE00128F7D0DA
:10122000D9F80000E26900F48001914214D1226AE9
:1012300000F03F0191420FD147F6C071626A014050
:10124000914209D1A26A00F44031914204D1E16A8D
:1012500000F07060884201D00120D9E70020D7E774
:101260000438024000004742800E474200700040B0
:101270000000FFFF10B5401EB0F1807F01D30120B8
:1012800010BD4FF0E02460610F21601700F069FA93
:101290000020A06107202061002010BDFEE701684A
:1012A0004A69D24352050FD46FF480624A6100212B
:1012B00040F8301F202242738173026942F0040219
:1012C0000261017301207047002070472DE9F84F3B
:1012D0000446006889460B9D01689846174641F40C
:1012E000806101602068016841F4807101600095AF
:1012F0004FF0011B0022594620460A9B00F0DEF801
:101300004FF4007A40B120680068C00501D5C4F8E8
:1013100040A00320BDE8F88F216809F0FE000861B5
:101320002B46284920460A9A00F0FCF8F0BB2068BA
:101330004169806900902A4620460A9900F070F9B8
:1013400040B1206C04283AD12068016841F4007152
:10135000016034E0FEB2B8F1010F09D02168380A0B
:1013600008612A4620460A9900F05AF90028E8D177
:10137000206806612A4620460A9900F051F90028A3
:10138000DFD12068016841F480710160009500227E
:10139000594620460A9B00F091F80028B3D12168F5
:1013A00009F0FF0040F00100086100E007E02B4673
:1013B000044920460A9A00F0B5F80028AAD0012076
:1013C000A8E70000020001002DE9F8430446006888
:1013D0000D46DDE9089701689846164641F480718C
:1013E00001604B4600224FF001112046009700F0AB
:1013F00065F848B120680068C00502D54FF4007058
:1014000020640320BDE8F883216805F0FE00086130
:101410003B464A461549204600F084F888B92068C2
:101420004169806900903A464946204600F0F8F844
:1014300048B1206C042804D12068016841F400718F
:1014400001600120DEE7F5B2B8F1010F09D0216893
:10145000300A08613A464946204600F0E1F8002883
:10146000E7D1206805610020CCE700000200010000
:1014700070B516460D4604460DE02046FFF70FFFF7
:1014800008B1012070BD681C05D0FFF71DF8801B56
:10149000A84207D835B120684069C0434007ECD462
:1014A000002070BD002044F8300F20216173A0732C
:1014B000216941F0200121612073E2E72DE9F04725
:1014C0001E4690460D460446C1F30747DDF82090BE
:1014D00008E0701C06D0FEF7F7FFA0EB0900B04251
:1014E0000FD876B12068012F18D0806925EA000056
:1014F0000004000C14D000214145EAD00020BDE8D2
:10150000F087002044F8300F20216173A073216917
:1015100041F02001216120730120F0E74069E5E7F7
:101520000121E9E72DE9F0479A4691460E46044627
:1015300000254FF02008C1F3074725E020684069E7
:10154000C043400514D42068016841F40071016073
:1015500021686FF480604861256384F83D8084F8D9
:101560003E50206C40F00400206484F83C501FE0A2
:10157000B9F1FF3F08D0FEF7A7FFA0EB0A014945EC
:101580000CD8B9F1000F09D02068012F13D0806961
:1015900026EA00000004000C0BD0CFE744F8305FCF
:1015A00084F80D80A573206940F020002061257328
:1015B0000120BDE8F0874069EAE72DE9F041002508
:1015C00090460E460446202717E04069C043C006F7
:1015D0000CD454F8301B6FF01000486144F81059D7
:1015E0006777A577206A2062257717E0FEF76CFF02
:1015F000A0EB0800B04208D83EB120684169C94359
:101600004906E2D40020BDE8F08144F8305F6773FA
:10161000A573206940F02000206125730120F2E7C6
:1016200070B516460D4604460DE02046FFF737FE1E
:1016300008B1012070BD681C05D0FEF745FF801B76
:10164000A84207D835B120684069C0430006ECD4F1
:10165000002070BD002044F8300F20216173A0737A
:10166000216941F0200121612073E2E70E4810B5A5
:101670000C4901600D49416000214FF480428160B6
:10168000C0E9031241618161C1610162FEF762FF3D
:1016900000210548FEF71EFFBDE81040002102486A
:1016A000FEF739BF005400401C000020801A0600DD
:1016B000FEE7704770477047FFF78EBA30B593B0BA
:1016C00030216846FEF7C6FD14210CA8FEF7C2FDC6
:1016D0001A480025016841F080510160006800F05F
:1016E000805011901648016841F440410160006843
:1016F000022400F440401190012003901020049037
:10170000009406940820CDE90750B420CDE90904DF
:1017100004200B906846FFF7FFFBFFF7E9FA0CA9DE
:101720000F2081E831004FF4A0500F90E00210909C
:1017300005210CA8FFF714FB13B030BD4038024060
:10174000007000400548016841F4700101600349E0
:101750004FF00060803908607047000088ED00E0BD
:10176000FEE70907090E002804DB00F1E02080F8FD
:101770000014704700F00F0000F1E02080F8141D05
:10178000704702E008C8121F08C1002AFAD170474A
:101790007047002001E001C1121F002AFBD17047F1
:1017A00010B564230222A021FEF798FF08B10020A3
:1017B00010BD012010BD0000FEB50B4C089D267821
:1017C000012E0CD0012626709BB28DE82C000A4613
:1017D0001023A021FFF738F80021217008B1002064
:1017E000FEBD0120FEBD0000080000202DE9FF4FD6
:1017F0001F480E4683B001781D46174601291CD0AC
:10180000012180460170FEF75FFE83464FF000091C
:101810004FF0640A06F01F00C0F12004AC4200D96A
:10182000ACB2CDE9007410233246A021CDF808A057
:101830000398FFF705F920B113E0002007B0BDE8D9
:10184000F08F0A20FEF744FD06EB04002D1B274411
:1018500086B209D0FEF738FEA0EB0B01109881424A
:10186000D8D388F80090E8E788F800900120E5E7F1
:101870000800002008B5FFF7B7F9FFF71FFF204861
:10188000016841F080010160016801F08001009170
:10189000016841F001010160016801F0010100915E
:1018A000016841F002010160006800F00200009050
:1018B000FFF7DCFE13481221017045214170A82179
:1018C00081700121C1704FF4FA60FEF701FD0E48EE
:1018D000FFF766FF98B14FF47A740423094A002198
:1018E00009480094FFF782FF2046FEF7F1FC054A05
:1018F0000423121D002104480094FFF75DFFFEE75A
:1019000030380240000000201C00002000000000D1
:10191000000000000102030406070809000000009F
:101920000102030444190008000000201C0000000C
:1019300082170008601900081C00002054040000F1
:1019400092170008000000000000000000000000E6
:101950000100000010000000000000000024F4005E
:04000005080001AD41
:00000001FF
